{
  "contractName": "UiamContract",
  "abi": [
    {
      "inputs": [],
      "stateMutability": "nonpayable",
      "type": "constructor"
    },
    {
      "inputs": [],
      "name": "isVerfied",
      "outputs": [
        {
          "internalType": "bool",
          "name": "",
          "type": "bool"
        }
      ],
      "stateMutability": "view",
      "type": "function",
      "constant": true
    },
    {
      "inputs": [],
      "name": "nextId",
      "outputs": [
        {
          "internalType": "uint256",
          "name": "",
          "type": "uint256"
        }
      ],
      "stateMutability": "view",
      "type": "function",
      "constant": true
    },
    {
      "inputs": [],
      "name": "username",
      "outputs": [
        {
          "internalType": "uint256",
          "name": "",
          "type": "uint256"
        }
      ],
      "stateMutability": "view",
      "type": "function",
      "constant": true
    },
    {
      "inputs": [
        {
          "internalType": "uint256",
          "name": "",
          "type": "uint256"
        }
      ],
      "name": "users",
      "outputs": [
        {
          "internalType": "uint256",
          "name": "id",
          "type": "uint256"
        },
        {
          "internalType": "string",
          "name": "uid",
          "type": "string"
        },
        {
          "internalType": "string",
          "name": "detailHash",
          "type": "string"
        }
      ],
      "stateMutability": "view",
      "type": "function",
      "constant": true
    },
    {
      "inputs": [
        {
          "internalType": "string",
          "name": "newUid",
          "type": "string"
        },
        {
          "internalType": "string",
          "name": "newDetailHash",
          "type": "string"
        }
      ],
      "name": "Create",
      "outputs": [],
      "stateMutability": "nonpayable",
      "type": "function"
    },
    {
      "inputs": [
        {
          "internalType": "string",
          "name": "newUid",
          "type": "string"
        },
        {
          "internalType": "string",
          "name": "newDetailHash",
          "type": "string"
        }
      ],
      "name": "find",
      "outputs": [],
      "stateMutability": "nonpayable",
      "type": "function"
    }
  ],
  "bytecode": "0x60806040526000600260006101000a81548160ff02191690831515021790555034801561002b57600080fd5b506000600181905550600260009054906101000a905050610ae1806100516000396000f3fe608060405234801561001057600080fd5b50600436106100625760003560e01c8063365b98b21461006757806338a96ba31461009957806361b8ce8c146100b557806361fac54d146100d3578063ae11cf73146100f1578063ec268bdb1461010f575b600080fd5b610081600480360381019061007c9190610640565b61012b565b604051610090939291906107d8565b60405180910390f35b6100b360048036038101906100ae91906105c8565b610275565b005b6100bd61031f565b6040516100ca91906107bd565b60405180910390f35b6100db610325565b6040516100e891906107bd565b60405180910390f35b6100f961032b565b60405161010691906107a2565b60405180910390f35b610129600480360381019061012491906105c8565b61033e565b005b6000818154811061013b57600080fd5b906000526020600020906003020160009150905080600001549080600101805461016490610907565b80601f016020809104026020016040519081016040528092919081815260200182805461019090610907565b80156101dd5780601f106101b2576101008083540402835291602001916101dd565b820191906000526020600020905b8154815290600101906020018083116101c057829003601f168201915b5050505050908060020180546101f290610907565b80601f016020809104026020016040519081016040528092919081815260200182805461021e90610907565b801561026b5780601f106102405761010080835404028352916020019161026b565b820191906000526020600020905b81548152906001019060200180831161024e57829003601f168201915b5050505050905083565b6000604051806060016040528060015481526020018481526020018381525090806001815401808255809150506001900390600052602060002090600302016000909190919091506000820151816000015560208201518160010190805190602001906102e39291906104a0565b5060408201518160020190805190602001906103009291906104a0565b505050600160008154809291906103169061096a565b91905055505050565b60015481565b60035481565b600260009054906101000a900460ff1681565b60005b60008054905081101561049b578260405160200161035f9190610774565b604051602081830303815290604052805190602001206000828154811061038957610388610a11565b5b90600052602060002090600302016001016040516020016103aa919061078b565b6040516020818303038152906040528051906020012014801561043c5750816040516020016103d99190610774565b604051602081830303815290604052805190602001206000828154811061040357610402610a11565b5b9060005260206000209060030201600201604051602001610424919061078b565b60405160208183030381529060405280519060200120145b15610461576001600260006101000a81548160ff02191690831515021790555061049b565b6000805490506003819055506000600260006101000a81548160ff02191690831515021790555080806104939061096a565b915050610341565b505050565b8280546104ac90610907565b90600052602060002090601f0160209004810192826104ce5760008555610515565b82601f106104e757805160ff1916838001178555610515565b82800160010185558215610515579182015b828111156105145782518255916020019190600101906104f9565b5b5090506105229190610526565b5090565b5b8082111561053f576000816000905550600101610527565b5090565b600061055661055184610842565b61081d565b90508281526020810184848401111561057257610571610a74565b5b61057d8482856108c5565b509392505050565b600082601f83011261059a57610599610a6f565b5b81356105aa848260208601610543565b91505092915050565b6000813590506105c281610a94565b92915050565b600080604083850312156105df576105de610a7e565b5b600083013567ffffffffffffffff8111156105fd576105fc610a79565b5b61060985828601610585565b925050602083013567ffffffffffffffff81111561062a57610629610a79565b5b61063685828601610585565b9150509250929050565b60006020828403121561065657610655610a7e565b5b6000610664848285016105b3565b91505092915050565b610676816108af565b82525050565b600061068782610888565b6106918185610893565b93506106a18185602086016108d4565b6106aa81610a83565b840191505092915050565b60006106c082610888565b6106ca81856108a4565b93506106da8185602086016108d4565b80840191505092915050565b600081546106f381610907565b6106fd81866108a4565b9450600182166000811461071857600181146107295761075c565b60ff1983168652818601935061075c565b61073285610873565b60005b8381101561075457815481890152600182019150602081019050610735565b838801955050505b50505092915050565b61076e816108bb565b82525050565b600061078082846106b5565b915081905092915050565b600061079782846106e6565b915081905092915050565b60006020820190506107b7600083018461066d565b92915050565b60006020820190506107d26000830184610765565b92915050565b60006060820190506107ed6000830186610765565b81810360208301526107ff818561067c565b90508181036040830152610813818461067c565b9050949350505050565b6000610827610838565b90506108338282610939565b919050565b6000604051905090565b600067ffffffffffffffff82111561085d5761085c610a40565b5b61086682610a83565b9050602081019050919050565b60008190508160005260206000209050919050565b600081519050919050565b600082825260208201905092915050565b600081905092915050565b60008115159050919050565b6000819050919050565b82818337600083830152505050565b60005b838110156108f25780820151818401526020810190506108d7565b83811115610901576000848401525b50505050565b6000600282049050600182168061091f57607f821691505b60208210811415610933576109326109e2565b5b50919050565b61094282610a83565b810181811067ffffffffffffffff8211171561096157610960610a40565b5b80604052505050565b6000610975826108bb565b91507fffffffffffffffffffffffffffffffffffffffffffffffffffffffffffffffff8214156109a8576109a76109b3565b5b600182019050919050565b7f4e487b7100000000000000000000000000000000000000000000000000000000600052601160045260246000fd5b7f4e487b7100000000000000000000000000000000000000000000000000000000600052602260045260246000fd5b7f4e487b7100000000000000000000000000000000000000000000000000000000600052603260045260246000fd5b7f4e487b7100000000000000000000000000000000000000000000000000000000600052604160045260246000fd5b600080fd5b600080fd5b600080fd5b600080fd5b6000601f19601f8301169050919050565b610a9d816108bb565b8114610aa857600080fd5b5056fea264697066735822122032e2463136dbe2f1db88831c26368dbe42511eb48682151195f488a11cb7547a64736f6c63430008070033",
  "immutableReferences": {},
  "source": "pragma solidity >=0.8.7;\r\n\r\ncontract UiamContract\r\n{\r\n    User[] public users;\r\n    uint256 public nextId;\r\n    bool public isVerfied=false;\r\n    uint256 public username;\r\n    constructor(){\r\n        username;\r\n        nextId = 0;\r\n        isVerfied;\r\n\r\n        \r\n    }\r\n    struct User\r\n    {\r\n        uint id;\r\n        string uid;\r\n        string detailHash;\r\n    }\r\n\r\n    function Create(string memory newUid, string memory newDetailHash)public\r\n    {\r\n        users.push(User({id:nextId,uid:newUid,detailHash:newDetailHash}));\r\n\r\n        nextId++;\r\n    }\r\n\r\n\r\n\r\n    //function read(string memory newUid, string memory newDetailHash) view public returns(string memory,string memory)\r\n    //{\r\n        \r\n    //    uint i = find(newUid,newDetailHash);\r\n    //    return( users[i].uid,users[i].detailHash);\r\n            \r\n    //}\r\n\r\n    //function update(string memory newUid, string memory newDetailHash)public\r\n    //{\r\n        \r\n    //    uint i = find(newUid,newDetailHash);\r\n    //    users[i].uid = newUid;\r\n    //    users[i].detailHash = newDetailHash;\r\n                \r\n         \r\n    //}\r\n\r\n    //function destroy(string memory newUid, string memory newDetailHash) public\r\n    //{\r\n    //    uint i = find(newUid,newDetailHash);\r\n    //    delete users[i];\r\n    //}\r\n\r\n    function find(string memory newUid, string memory newDetailHash) public \r\n    {\r\n        \r\n        for(uint i = 0;i<users.length;i++)\r\n        {\r\n            if(keccak256(abi.encodePacked(users[i].uid)) == keccak256(abi.encodePacked(newUid)) && keccak256(abi.encodePacked(users[i].detailHash)) == keccak256(abi.encodePacked(newDetailHash)))\r\n            {\r\n                isVerfied = true;\r\n                break;\r\n            }\r\n            username = users.length;\r\n    \r\n            isVerfied = false;\r\n        }\r\n\r\n    }\r\n\r\n\r\n}",
  "sourcePath": "D:\\projects\\min_project\\blockchain_test\\contracts\\UiamContract.sol",
  "compiler": {
    "name": "solc",
    "version": "0.8.7+commit.e28d00a7.Emscripten.clang"
  },
  "schemaVersion": "3.4.4",
  "updatedAt": "2022-07-20T06:15:04.054Z",
  "networkType": "ethereum",
  "devdoc": {
    "kind": "dev",
    "methods": {},
    "version": 1
  },
  "userdoc": {
    "kind": "user",
    "methods": {},
    "version": 1
  }
}